{
  "contractName": "dcsdedup",
  "abi": [
    {
      "inputs": [
        {
          "internalType": "bytes32",
          "name": "fileTag",
          "type": "bytes32"
        },
        {
          "internalType": "bytes32",
          "name": "head",
          "type": "bytes32"
        },
        {
          "internalType": "bytes32",
          "name": "tail",
          "type": "bytes32"
        }
      ],
      "name": "FIndexPut",
      "outputs": [
        {
          "internalType": "bool",
          "name": "flag",
          "type": "bool"
        }
      ],
      "stateMutability": "nonpayable",
      "type": "function"
    },
    {
      "inputs": [
        {
          "internalType": "bytes32",
          "name": "fileTag",
          "type": "bytes32"
        }
      ],
      "name": "FIndexGet",
      "outputs": [
        {
          "internalType": "bytes32",
          "name": "head",
          "type": "bytes32"
        },
        {
          "internalType": "bytes32",
          "name": "tail",
          "type": "bytes32"
        }
      ],
      "stateMutability": "view",
      "type": "function",
      "constant": true
    },
    {
      "inputs": [
        {
          "internalType": "bytes32",
          "name": "fileTag",
          "type": "bytes32"
        }
      ],
      "name": "UListGet",
      "outputs": [
        {
          "internalType": "address[]",
          "name": "users",
          "type": "address[]"
        }
      ],
      "stateMutability": "view",
      "type": "function",
      "constant": true
    },
    {
      "inputs": [
        {
          "internalType": "bytes32",
          "name": "fileTag",
          "type": "bytes32"
        },
        {
          "internalType": "address",
          "name": "owner",
          "type": "address"
        }
      ],
      "name": "UListPut",
      "outputs": [],
      "stateMutability": "nonpayable",
      "type": "function"
    },
    {
      "inputs": [
        {
          "internalType": "bytes32",
          "name": "fileTag",
          "type": "bytes32"
        },
        {
          "internalType": "address",
          "name": "owner",
          "type": "address"
        }
      ],
      "name": "UListRm",
      "outputs": [],
      "stateMutability": "nonpayable",
      "type": "function"
    }
  ],
  "bytecode": "0x608060405234801561001057600080fd5b5061075a806100206000396000f3fe608060405234801561001057600080fd5b50600436106100575760003560e01c80633507e8691461005c578063484e6593146100785780638b9dfdbf146100a8578063a3909c37146100c4578063d05c2b73146100f4575b600080fd5b61007660048036038101906100719190610466565b610125565b005b610092600480360381019061008d91906104a6565b610233565b60405161009f9190610591565b60405180910390f35b6100c260048036038101906100bd9190610466565b6102d4565b005b6100de60048036038101906100d991906105b3565b61034c565b6040516100eb9190610621565b60405180910390f35b61010e600480360381019061010991906104a6565b610381565b60405161011c92919061064b565b60405180910390f35b60005b600160008481526020019081526020016000208054905081101561022e578173ffffffffffffffffffffffffffffffffffffffff1660016000858152602001908152602001600020828154811061018257610181610674565b5b9060005260206000200160009054906101000a900473ffffffffffffffffffffffffffffffffffffffff1673ffffffffffffffffffffffffffffffffffffffff160361021b576001600084815260200190815260200160002081815481106101ed576101ec610674565b5b9060005260206000200160006101000a81549073ffffffffffffffffffffffffffffffffffffffff02191690555b8080610226906106dc565b915050610128565b505050565b6060600160008381526020019081526020016000208054806020026020016040519081016040528092919081815260200182805480156102c857602002820191906000526020600020905b8160009054906101000a900473ffffffffffffffffffffffffffffffffffffffff1673ffffffffffffffffffffffffffffffffffffffff168152602001906001019080831161027e575b50505050509050919050565b60016000838152602001908152602001600020819080600181540180825580915050600190039060005260206000200160009091909190916101000a81548173ffffffffffffffffffffffffffffffffffffffff021916908373ffffffffffffffffffffffffffffffffffffffff1602179055505050565b600080600080868152602001908152602001600020905083816000018190555082816001018190555060019150509392505050565b6000806000806000858152602001908152602001600020604051806040016040529081600082015481526020016001820154815250509050806000015192508060200151915050915091565b600080fd5b6000819050919050565b6103e5816103d2565b81146103f057600080fd5b50565b600081359050610402816103dc565b92915050565b600073ffffffffffffffffffffffffffffffffffffffff82169050919050565b600061043382610408565b9050919050565b61044381610428565b811461044e57600080fd5b50565b6000813590506104608161043a565b92915050565b6000806040838503121561047d5761047c6103cd565b5b600061048b858286016103f3565b925050602061049c85828601610451565b9150509250929050565b6000602082840312156104bc576104bb6103cd565b5b60006104ca848285016103f3565b91505092915050565b600081519050919050565b600082825260208201905092915050565b6000819050602082019050919050565b61050881610428565b82525050565b600061051a83836104ff565b60208301905092915050565b6000602082019050919050565b600061053e826104d3565b61054881856104de565b9350610553836104ef565b8060005b8381101561058457815161056b888261050e565b975061057683610526565b925050600181019050610557565b5085935050505092915050565b600060208201905081810360008301526105ab8184610533565b905092915050565b6000806000606084860312156105cc576105cb6103cd565b5b60006105da868287016103f3565b93505060206105eb868287016103f3565b92505060406105fc868287016103f3565b9150509250925092565b60008115159050919050565b61061b81610606565b82525050565b60006020820190506106366000830184610612565b92915050565b610645816103d2565b82525050565b6000604082019050610660600083018561063c565b61066d602083018461063c565b9392505050565b7f4e487b7100000000000000000000000000000000000000000000000000000000600052603260045260246000fd5b7f4e487b7100000000000000000000000000000000000000000000000000000000600052601160045260246000fd5b6000819050919050565b60006106e7826106d2565b91507fffffffffffffffffffffffffffffffffffffffffffffffffffffffffffffffff8203610719576107186106a3565b5b60018201905091905056fea2646970667358221220cc57dc345ba5803349c7d427577bbeb0312af94ee19b5ffe1174ce49d895b6c764736f6c63430008100033",
  "immutableReferences": {},
  "source": "// SPDX-License-Identifier: UNLICENSED\r\npragma solidity ^0.8.0;\r\n/**\r\n@title Contract for DCSDedup v1\r\n@author Zabreture\r\n@notice \r\nFIndex, UList and other function\r\n@dev    Gas consume is not considered\r\n */\r\ncontract dcsdedup {\r\n    mapping(bytes32 => MetaData) FIndex;\r\n    mapping(bytes32 => address[]) UList;\r\n\r\n    struct MetaData {\r\n        bytes32 head;\r\n        bytes32 tail;\r\n        // Split the fileID to save gas\r\n    }\r\n\r\n    function FIndexPut(bytes32 fileTag, bytes32 head, bytes32 tail) public returns(bool flag) {\r\n        MetaData storage metadata = FIndex[fileTag];\r\n        metadata.head = head;\r\n        metadata.tail = tail;\r\n        flag = true;\r\n    }\r\n\r\n    function FIndexGet(bytes32 fileTag) public view returns(bytes32 head, bytes32 tail) {\r\n        MetaData memory metadata = FIndex[fileTag];\r\n        head = metadata.head;\r\n        tail = metadata.tail;\r\n    }\r\n\r\n    function UListGet(bytes32 fileTag) public view returns(address[] memory users){\r\n        users = UList[fileTag];\r\n    }\r\n\r\n    function UListPut(bytes32 fileTag, address owner) public {\r\n        UList[fileTag].push(owner);\r\n    }\r\n\r\n    function UListRm(bytes32 fileTag, address owner) public {\r\n        for (uint i = 0; i<UList[fileTag].length; i++){\r\n            if(UList[fileTag][i] == owner){\r\n                delete UList[fileTag][i];\r\n            }\r\n        }\r\n    }\r\n}",
  "sourcePath": "D:\\Projects\\JavaScript\\dcsdedup-JISA 2022\\contract\\contracts\\dcsdedup.sol",
  "compiler": {
    "name": "solc",
    "version": "0.8.16+commit.07a7930e.Emscripten.clang"
  },
  "schemaVersion": "3.4.9",
  "updatedAt": "2022-12-11T17:29:59.884Z",
  "networkType": "ethereum",
  "devdoc": {
    "author": "Zabreture",
    "details": "Gas consume is not considered",
    "kind": "dev",
    "methods": {},
    "title": "Contract for DCSDedup v1",
    "version": 1
  },
  "userdoc": {
    "kind": "user",
    "methods": {},
    "notice": " FIndex, UList and other function",
    "version": 1
  }
}