{
  "contractName": "test",
  "abi": [
    {
      "anonymous": false,
      "inputs": [
        {
          "indexed": false,
          "internalType": "uint256",
          "name": "",
          "type": "uint256"
        }
      ],
      "name": "record",
      "type": "event"
    },
    {
      "inputs": [
        {
          "internalType": "uint256",
          "name": "a",
          "type": "uint256"
        },
        {
          "internalType": "uint256",
          "name": "b",
          "type": "uint256"
        }
      ],
      "name": "add",
      "outputs": [
        {
          "internalType": "uint256",
          "name": "c",
          "type": "uint256"
        }
      ],
      "stateMutability": "nonpayable",
      "type": "function"
    },
    {
      "inputs": [
        {
          "internalType": "uint256",
          "name": "a",
          "type": "uint256"
        },
        {
          "internalType": "uint256",
          "name": "b",
          "type": "uint256"
        }
      ],
      "name": "add_pure",
      "outputs": [
        {
          "internalType": "uint256",
          "name": "c",
          "type": "uint256"
        }
      ],
      "stateMutability": "nonpayable",
      "type": "function"
    }
  ],
  "bytecode": "0x608060405234801561001057600080fd5b506102fc806100206000396000f3fe608060405234801561001057600080fd5b50600436106100365760003560e01c80633e359b7d1461003b578063771602f71461006b575b600080fd5b610055600480360381019061005091906101f9565b61009b565b6040516100629190610248565b60405180910390f35b610085600480360381019061008091906101f9565b610120565b6040516100929190610248565b60405180910390f35b600081836100a99190610292565b9050600080600083815260200190815260200160002060009054906101000a900473ffffffffffffffffffffffffffffffffffffffff1690507f2c16cd8a63e2fd76bd04e96e0074749aa754278ef34d925402db64d8bec6bf17826040516101119190610248565b60405180910390a15092915050565b6000818361012e9190610292565b90503360008083815260200190815260200160002060006101000a81548173ffffffffffffffffffffffffffffffffffffffff021916908373ffffffffffffffffffffffffffffffffffffffff1602179055507f2c16cd8a63e2fd76bd04e96e0074749aa754278ef34d925402db64d8bec6bf17816040516101b09190610248565b60405180910390a192915050565b600080fd5b6000819050919050565b6101d6816101c3565b81146101e157600080fd5b50565b6000813590506101f3816101cd565b92915050565b600080604083850312156102105761020f6101be565b5b600061021e858286016101e4565b925050602061022f858286016101e4565b9150509250929050565b610242816101c3565b82525050565b600060208201905061025d6000830184610239565b92915050565b7f4e487b7100000000000000000000000000000000000000000000000000000000600052601160045260246000fd5b600061029d826101c3565b91506102a8836101c3565b92508282019050808211156102c0576102bf610263565b5b9291505056fea26469706673582212203e07e27c3c14463e96ffd05bfde15013d105c5af85f4f2a0a78df04a2124521d64736f6c63430008100033",
  "immutableReferences": {},
  "source": "pragma solidity ^0.8.0;\r\n\r\ncontract test {\r\n    mapping(uint => address) int2addr;\r\n    event record(uint);\r\n\r\n    function add(uint a, uint b) public returns(uint c) {\r\n        c = a + b;\r\n        int2addr[c] = msg.sender;\r\n        emit record(c);\r\n    }\r\n\r\n    function add_pure(uint a, uint b) public returns(uint c) {\r\n        c = a + b;\r\n        address d = int2addr[c];\r\n        emit record(c);\r\n    }\r\n}\r\n",
  "sourcePath": "D:\\Projects\\JavaScript\\dcsdedup-JISA 2022\\contract\\contracts\\test.sol",
  "compiler": {
    "name": "solc",
    "version": "0.8.16+commit.07a7930e.Emscripten.clang"
  },
  "schemaVersion": "3.4.9",
  "updatedAt": "2023-02-13T09:35:13.568Z",
  "networkType": "ethereum",
  "devdoc": {
    "kind": "dev",
    "methods": {},
    "version": 1
  },
  "userdoc": {
    "kind": "user",
    "methods": {},
    "version": 1
  }
}